:020000040800F2
:100000004019012451030008154A0008514800080E
:100010005D030008C7150008D95F00080000000054
:10002000000000000000000000000000054F000874
:100030008918000800000000174A00080150000855
:100040006B0300086B0300086B0300086B030008D8
:100050006B0300086B0300086B0300086B030008C8
:100060006B0300086B0300086B0300086B030008B8
:100070006B030008E91500086B030008F915000878
:1000800009160008191600086B0300086B03000826
:100090006B0300086B0300086B0300086B03000888
:1000A0006B0300086B0300086B0300086B03000878
:1000B0006B0300086B0300086B0300086B03000868
:1000C0006B0300086B0300086B0300086B03000858
:1000D0006B030008A15E0008E95E00086B030008DE
:1000E0006B0300086B030008000000006B030008AE
:1000F0006B0300086B0300086B0300086B03000828
:100100006B0300086B0300086B0300086B03000817
:100110006B0300086B0300086B0300086B03000807
:100120006B0300086B0300086B0300086B030008F7
:100130006B0300086B0300086B0300086B030008E7
:1001400000000000000000000000000000000000AF
:100150006B0300086B0300086B0300086B030008C7
:100160006B0300086B0300086B0300086B030008B7
:100170006B0300086B0300086B030008000000001D
:100180006B0300086B0300086B0300086B03000897
:100190006B0300086B0300086B0300086B03000887
:1001A0006B0300086B0300086B0300086B03000877
:1001B0006B0300086B0300086B0300086B03000867
:1001C0006B0300086B0300086B0300086B03000857
:1001D0006B0300086B0300086B0300086B03000847
:1001E0006B0300086B0300086B0300086B03000837
:1001F0006B0300086B0300086B0300086B03000827
:100200006B0300086B0300086B0300086B03000816
:100210006B0300086B0300086B0300086B03000806
:100220006B0300086B0300086B030008000000006C
:100230006B0300086B030008000000006B0300085C
:100240006B0300086B0300086B0300086B030008D6
:100250006B0300086B0300086B0300086B030008C6
:100260006B0300086B0300086B0300086B030008B6
:100270006B0300086B0300086B030008000000001C
:100280006B030008000000006B0300080000000082
:10029000000000006B03000800F002F800F049F8CD
:1002A0000AA090E8000C82448344AAF10107DA45D1
:1002B00001D100F03EF8AFF2090EBAE80F0013F0DA
:1002C000010F18BFFB1A43F00103184764720000C6
:1002D00084720000103A24BF78C878C1FAD8520757
:1002E00024BF30C830C144BF04680C6070470000B0
:1002F0000023002400250026103A28BF78C1FBD82F
:10030000520728BF30C148BF0B607047662907F00D
:100310006E80002070471FB507F064F800F022FCE3
:1003200004000020002107F017F8E0601FBD10B5A1
:1003300010BD00F017FD1146FFF7EDFF06F066FD5A
:1003400000F035FD03B4FFF7F2FF03BC00F06CFDD5
:100350000948804709480047FEE7FEE7FEE7FEE759
:10036000FEE7FEE7FEE7FEE7FEE7FEE70448054995
:10037000054A064B70470000095000089902000822
:10038000401700244019012440190024401900247A
:1003900053EA020C00F069802DE9F04B4FF00006A3
:1003A000002B1FBFB3FA83F503FA05F424FA05F610
:1003B0005E4012BF1643B2FA82F502FA05F4C5F1A7
:1003C00020051EBF22FA05FC44EA0C04203556EA3B
:1003D000044C4FEA144418BF641C4FF000084FF05F
:1003E0000009904271EB030C39D3002919BFB1FA0F
:1003F00081F701FA07F6B0FA80F700FA07F6C7F1BD
:1004000020071EBF20FA07FC46EA0C062037B6FB81
:10041000F4FCA7EB0507103F07F01F0BCBF12006FC
:100420000CFA0BFB2CFA06F644BFB3460026202F2D
:10043000A4BF5E464FF0000B5BEA060C08BF4FF00E
:10044000010B19EB0B09ABFB027C48EB0608C01B48
:1004500006FB02CC0BFB03CC71EB0C01C1E70B4696
:10046000024641464846BDE8F08B13B54FF0000008
:100470004FF00001AFF30080BDE81C407047000062
:100480000FB47CB50C0009AA009001D02044401E96
:10049000084B7B4469460190089800F042FB0546F2
:1004A0001CB10020694600F04FFB28467CBC5DF87B
:1004B00014FB0000BD0600002DE9F0474FF0000AD4
:1004C00089460446C0F820A02046E16888470028F5
:1004D00076D0252806D0D4E901219047206A401C17
:1004E0002062F1E7E168204600258847C4F81CA097
:1004F00006460027C4F818A02A2E09D0304605F079
:10050000A1FD38B304EB8708303EC8F8186019E045
:1005100059F8041B204604EB87029161E168884783
:10052000012F064618D1E069002820DA25F02005C1
:100530001DE0D8F8180000EB800006EB40003038D2
:10054000C8F818002046E1688847064605F07AFD9D
:100550000028EED1012F0AD02E2E08D12046E168C6
:1005600088477F1C0646022F45F02005C4DBA069A2
:10057000002803DA404245F00105A061E80701D0F8
:1005800025F01005B6B1A6F14100192802D8203691
:1005900045F400654A463146204625604D46FFF742
:1005A000B5FE58B1012806D0ED1D25F0070000F179
:1005B000080989E704E005F1040985E730468AE780
:1005C000206ABDE8F08710B5431C02E010F8011B5B
:1005D00071B18107FAD14FF0013202C88C1A8C43F5
:1005E00014EAC211F9D0C01A0A0603D0C01E10BD09
:1005F000C01A10BD0A0401D0801E10BD0902FCD033
:10060000401E10BD032A40F2308010F0030C00F0B1
:10061000158011F8013BBCF1020F624498BF11F83C
:1006200001CB00F8013B38BF11F8013BA2F10402F5
:1006300098BF00F801CB38BF00F8013B11F003036D
:1006400000F02580083AC0F0088051F8043B083AD1
:1006500051F804CBA0E80810F5E7121D5CBF51F873
:10066000043B40F8043BAFF30080D20724BF11F8ED
:10067000013B11F801CB48BF11F8012B24BF00F852
:10068000013B00F801CB48BF00F8012B704710B5C3
:10069000203AC0F00B80B1E81850203AA0E818507A
:1006A000B1E81850A0E81850BFF4F5AF5FEA027C3B
:1006B00024BFB1E81850A0E8185044BF18C918C0AA
:1006C000BDE810405FEA827C24BF51F8043B40F84B
:1006D000043B08BF7047D20728BF31F8023B48BF30
:1006E00011F8012B28BF20F8023B48BF00F8012B6E
:1006F000704770477047704770472DE9FF4F0C46B1
:100700001E464FF0FF378BB0D2E90001DDF8608064
:100710000A908A46C1F30A5505B93D4600210846AC
:100720004FF00000BAF1000F00F4400005DA00EBD2
:1007300080004FF4400101EA50004FEA9059B9F1AE
:10074000010F00DDB9460A9850EA4A000ED044F67F
:100750001050A5F2FF3545432F14B8F1000F1ED0FD
:100760007542291E1EDDC9F100021CE0B8F1010F1F
:100770004FF0000001D0302103E0F24305E02154A6
:10078000401CB042FBDB30460022002121540B9973
:10079000C1F80880C1E900200FB0BDE8F08FBD1B93
:1007A0006D1CDEE74A4600DA694206A800F064FAEA
:1007B00006AB93E8070003AB83E8070050460A99AD
:1007C00000F039FB8DE80700A0F500501F380090BD
:1007D0000398002D0ADD42F21F014A460844002317
:1007E00003A90390684600F0A2FD09E0A0F50050BF
:1007F0004A461F38002303A90390684600F0ACFD69
:100800008DE807000004000C03D04FF0FF304108D2
:1008100000E01046B8F1000F03D000220092154608
:100820001EE0751E05D400F0A1F9303262556D1E30
:10083000F9D5B3460122084302D000227F1C04E010
:100840002078302801D100227F1E002A099784D009
:100850001DE0112D07DA00F089F9303262556D1C68
:1008600050EA0102F5D1084302D00098C8B10EE069
:100870000021681E05E0235C625C63542254401E24
:10088000491C8142F7DBAB46A81B401E09900020A3
:1008900004F80B000B98099AC0F80880C0E9002BF7
:1008A0007AE711264FF0000857E72DE9F04F884608
:1008B0000446D21D22F0070191B0D1E90001CDE933
:1008C0000A0105F08BFB02460B98C00F01D02D20CA
:1008D00007E02068810701D52B2002E0202101EAF2
:1008E000C000032A099001D0072A05DB03464146D0
:1008F000204600F081F90BE12078800601D5E069FF
:1009000000E00620B8F1650F814606D0B8F1660F09
:1009100018D0B8F1670F70D131E00020B9F1110F94
:10092000009001DB112301E009F101030AAA01A9EA
:100930000CA8FFF7E2FEDDE90C70002609F10105C5
:10094000834647E001204B4600904FF000470AAA3B
:1009500001A90CA8FFF7D1FEDDE90DB00C995D46A9
:10096000002610B909F101000D18B9EB050003D4F8
:10097000C0F1FF3609F10105A5EB09002BE0B9F143
:10098000010F01DA4FF001090020B9F1110F0090B9
:10099000484601DD112300E003460AAA01A90CA87C
:1009A000FFF7ABFEDDE90C704D460026834620784C
:1009B00000070AD4AB4500DA5D4601A8012D04DD2D
:1009C000411911F8011C302907D04F4502DA17F1FF
:1009D000040F04DA012082460FE06D1EEEE7002FBF
:1009E00002DCED1B3E4403E0781CA84200DD7D1CC8
:1009F000B81B00F1010A4FF000472078000703D42C
:100A0000AA4501DB4FF0FF3A0021B7F1004F0DF18D
:100A100043088DF8431024D002202B23002F01DA45
:100A20007F422D230A21021EA0F1010000DC5FB1EC
:100A300097FBF1FC97FBF1F201FB1C7C17460CF1D4
:100A4000300C08F801CDEEE7A8F101000370218811
:100A5000090501D5452100E06521A0F1010800F854
:100A6000011C09980FA9A1EB0807FF1D00B1012087
:100A7000411901EBEA70A1693844081A401EA061CF
:100A80002078C00602D42046AFF30080099828B130
:100A9000D4E901219047206A401C20622078C006DA
:100AA00022D52046AFF300801EE0002E04DBB345C4
:100AB00002DD01A8805D00E03020D4E901219047EB
:100AC000206A401C2062761CAAF101005FEA000A3D
:100AD0000AD100F047F8C0680168405CD4E9012100
:100AE0009047206A401C2062281EA5F10105DCDC2D
:100AF00007E0D4E9012118F8010B9047206A401C57
:100B00002062381EA7F10107F3DC2046AFF3008016
:100B1000032011B041E6000001694A1C0261087817
:100B2000704700B58FB0CDE901310021059105492D
:100B30007944CDE9031011466846FFF7BDFC0FB0BC
:100B400000BD0000E5FFFFFF0A6802F8010B0A6024
:100B50007047D1E900239A4202D2531C0B601070F7
:100B600070470000004870470017002430B5B0F10E
:100B70000A024FEA900E71F100034EEA817EB0EB5B
:100B80000E0061EB91014FEA101E4EEA017E10EB60
:100B90000E0041EB11114FEA102E4EEA016E10EBE0
:100BA0000E0041EB11214FEA104E4EEA014E10EBC0
:100BB0000E0041EB1141401841F100014FEAD00015
:100BC00040EA41704FEAD10110EB80054FEA810401
:100BD00044EA907444EB01046D1944EB0404521B85
:100BE000A3414FF0000348BF0A3200D530BD401C7E
:100BF00041F1000130BD00002DE9F0411F460446DF
:100C000003260168072A01F4006004DB08B116A579
:100C100005E016A503E008B115A500E015A521F033
:100C200010002060A069C01EA0610FB1401EA0612D
:100C30002046AFF300804FB1D4E9012138469047F8
:100C4000206A401C2062C01C206206E0206AFAE78D
:100C5000D4E9012115F8010B9047761EF8D2204601
:100C6000AFF30080BDE8F0814E414E006E616E0032
:100C7000494E4600696E66002DE9F04781461646EA
:100C80008AB0354878440DC88DE80D003248784464
:100C9000801C03AC0DC884E80D0041F69B3008446D
:100CA000372190FBF1F290FBF1F5A5F1800501FBF6
:100CB00012041B3C02D56442012000E00020DFF852
:100CC00098A080460027FA44AAF1BE0A0EE0E00789
:100CD0000AD03246684607EB470101230AEB81013F
:100CE00000F03AFB8DE8070064107F1C002CEED169
:100CF000194F7F44AE3F19E0E80715D007EB041009
:100D00000DF1180A90E80E008AE80E00C068F04263
:100D100001D1981908903246012306A903A800F0D2
:100D20001BFB03AB83E807006D10641C002DE3D1AF
:100D30004FF0010332466946B8F1000F03A802D014
:100D400000F0F5FA01E000F007FBC9E90001C9F87D
:100D500008200AB0BDE8F08790680000004870479E
:100D6000E01600247546FFF7F9FFAE460500694618
:100D7000534620F00700854618B020B5FFF7F6FA75
:100D8000BDE820404FF000064FF000074FF000088C
:100D90004FF0000B21F00701AC46ACE8C009ACE80D
:100DA000C009ACE8C009ACE8C0098D46704710B571
:100DB0000446AFF300802046BDE81040FFF7C2BAFA
:100DC0004FF0013C50F8042B51F8043B9A4215D1E6
:100DD000A2EB0C03934313EACC130BD150F8042B72
:100DE00051F8043B9A4209D1A2EB0C03934313EA56
:100DF000CC13E7D04FF00000704700BFD01A01BA03
:100E0000B1FA81F101F0180122FA01F0CB40C1F1F1
:100E10002001DBB2C0B2C01A2CFA01F3D11A9143FF
:100E200011EAC311E6D1704701491820ABBEFEE7B5
:100E30002600020070475FEA400C08BF91F0000FE7
:100E40004FEA8C234FEAC12243EA51514FEA1C502A
:100E500018BF00F5F0404FEA300018BF41F00041E4
:100E60005FEA6C5C00F02980BCF1FF3F08BF40F0F6
:100E700080407047130C06BF12044FF0100C4FF067
:100E8000000C130E04BF12020CF1080C130F04BF68
:100E900012010CF1040C930F04BF92000CF1020C30
:100EA000D30F04BF52000CF1010C11464FF00002A9
:100EB000A0F11F00A0EB0C00704711F0004F08BF1D
:100EC000704731F000413FF4D5AF0B0C06BF090469
:100ED0004FF0100C4FF0000C0B0E04BF09020CF188
:100EE000080C0B0F04BF09010CF1040C8B0F04BF9D
:100EF00089000CF1020CCB0F04BF49000CF1010C6E
:100F0000CCF12003A0EB0C0022FA03F302FA0CF25E
:100F100041EA030100F10100704720F07F4C80EAB4
:100F2000030023F07F47ACEB070303F57C5300F08D
:100F3000004003F1FF032DE980494FEA154B09B446
:100F40004FEA144325EA0B4E24EA03480FF2042625
:100F500006EB132749083E785FEA320203FB066777
:100F6000C7F5000707FB06F64FEA54374FEAD646A7
:100F700006F1020607FB066CCCF1005C4FEA1C4749
:100F80002CEA074C07FB06F40CFB06F504EB1546B0
:100F90004FEA961634BF00204FF000404FEAD13799
:100FA00006FB07FC4FEA1C4C0CFB0BF7D21B03FBA8
:100FB0000CF761EB07010CFB0EF7B0EB074072EB8F
:100FC00017420CFB08F734BFA2EB0742B2EB074213
:100FD00061EB17414FEA0C444FEA910706FB07FC0F
:100FE0004FEA1C4C0CFB0BF7B0EBC74072EB5732CF
:100FF00003FB0CF734BFA2EBC742B2EBC74261EB75
:1010000057310CFB0EF7B0EBC70072EB57720CFBBD
:1010100008F734BFA2EBC702B2EBC70261EB57710E
:10102000039F4FEA816141EA921104EBCC044FEA3D
:10103000D1374FEA826206FB07FC42EA90124FEA80
:1010400080604FEA1C4C0CFB0BF7D21B03FB0CF728
:1010500061EB07010CFB0EF7B0EB074072EB174298
:101060000CFB08F734BFA2EB0742B2EB074261EB7F
:1010700017414FEA8C554FEA910704EB9C2406FB7D
:1010800007FC4FEA1C4C0CFB0BF7B0EBC74072EBB4
:10109000573203FB0CF734BFA2EBC742B2EBC74297
:1010A00061EB57310CFB0EF7B0EBC70072EB5772D8
:1010B0000CFB08F734BFA2EBC702B2EBC70261EB2F
:1010C000577115EB4C254FEA816141EA92114FEAC5
:1010D00082624FEAD13742EA901206FB07FC44F1E4
:1010E00000044FEA80604FEA1C4C0CFB0BF7D21B4C
:1010F00003FB0CF761EB07010CFB0EF7B0EB0740AD
:1011000072EB17420CFB08F734BFA2EB0742B2EBBD
:10111000074261EB174115EB1C154FEA813141EA9B
:1011200092414FEA823242EA90424FEA80304FEADF
:101130000C7644F1000448EA03434EEA0B484FF0B2
:10114000000EB2EB080C71EB030724BF6246394670
:101150004EEB0E0E4FF0000B0018524149414BEB85
:101160000B0BB2EB080C71EB03077BF1000B24BFF8
:10117000624639464EEB0E0E4FF0000B00185241FE
:1011800049414BEB0B0BB2EB080C71EB03077BF106
:10119000000B24BF624639464EEB0E0E51EA0207A1
:1011A00018BF46F0010616EB0E7655F1000254F119
:1011B000000103D5BDE88901BDE80088BDE88901CB
:1011C000BDE80048B619524141EB0101A3F101030A
:1011D000704780807F7E7D7C7B7A797877767675A4
:1011E0007473727171706F6E6E6D6C6C6B6A6A691C
:1011F0006868676666656464636362616160605FB6
:101200005F5E5E5D5D5C5C5B5B5A5A59595858572E
:101210005756565555555454535352525251515096
:1012200050504F4F4F4E4E4D4D4D4C4C4C4B4B4BE9
:101230004A4A4A494949484848474747474646462F
:10124000454545444444444343434342424242416A
:101250004141002B9C4630D477002BD01CB54FEA7F
:10126000370703B44FF010004FF01001BAF1000F30
:1012700006D0BCF1000FDCBF40F0080040F00801D0
:101280004FF000000FBCBDE810400BF1010BBBF1AB
:10129000010F08BF5FEA170722BF12F1010211F127
:1012A00001014FF0004143F1000300F0004043EA28
:1012B00000007047F9D35708D0E746EA064613F115
:1012C000400F4FEA16461FDD13F1200FDFBF164314
:1012D0000A46002120335B42BED0C3F1200746EA14
:1012E000064602FA07F74FEA164646EA0706C3F132
:1012F000200722FA03F201FA07F721FA03F14FF06F
:10130000000342EA0702A7E746EA020646EA064663
:101310004FEA164646EA0106BCBF46EA0646360CC8
:101320004FF000034FF000024FF0000194E72DE969
:10133000804C9A46934670B491E8380007C831EA69
:10134000400C48BF34EA430C03D5FFF7E6FDFFF736
:1013500080FFF0BCBDE8008C2DE9804C9A46934696
:1013600070B491E8380007C810F0804F08BF13F040
:10137000804F03D100F005F8FFF76BFFF0BCBDE82C
:10138000008C20F07F4780EA030023F07F4C07EBBE
:101390000C03A3F57C5300F00040A3F1FE0392F090
:1013A000000F00F0B38095F0000F00F077802DE97A
:1013B00001494FEA11404FEA144621EA004800FB78
:1013C00006FC24EA064708FB06F607FB08F800FBC4
:1013D00007F718EB06484CEB164C4FEA124B18EB8C
:1013E00007484FEA15464CEB174022EA0B4E0BFB21
:1013F00006FC25EA06470EFB06F607FB0EFE0BFB76
:1014000007F71EEB064E4CEB164C4FF000061EEB9A
:10141000074E4CEB174B18EB0B0840F1000018EB94
:101420000E0B58EB000840F100008F1A4FF000013E
:101430003CBFC943661B14BFB5EB040C00213CBF85
:10144000C943F61B4FEA17444EEA8E0E27EA0445BD
:101450004FEA1C4704FB07622CEA074C05FB07F721
:101460000CFB05F604FB0CFC16EB074642EB17429F
:1014700016EB0C4642EB1C421BEB060658EB020235
:10148000414146EA9E0601D5BDE80189B61952419F
:1014900041EB0101A3F10103BDE801894FEA1445C5
:1014A0004FEA114724EA054621EA074C05FB07F4F9
:1014B00006FB07F70CFB06F105FB0CFC11EB0741E3
:1014C00044EB17444FEA124711EB0C4144EB1C4428
:1014D00022EA074C05FB07F206FB07F70CFB06F6B2
:1014E00005FB0CFC16EB074642EB174216EB0C46CD
:1014F00042EB1C456A1854F1000148BF7047B61909
:10150000524141EB0101A3F10103704795F0000F37
:1015100037D04FEA11424FEA144721EA024624EA43
:10152000074C02FB07F106FB07F70CFB06F402FB76
:101530000CFC14EB074441EB17414FEA154714EB41
:101540000C4441EB1C4125EA074C02FB07F506FB66
:1015500007F70CFB06F602FB0CFC16EB074645EB07
:10156000174516EB0C4645EB1C42121951F10001D0
:1015700048BF7047B619524141EB0101A3F1010385
:1015800070474FEA14454FEA114724EA054621EA1D
:10159000074C05FB07F106FB07F70CFB06F24FF0C3
:1015A000000605FB0CFC12EB074241EB174112EB66
:1015B0000C4251EB1C4148BF7047921841EB0101AE
:1015C000A3F10103704700BFFEE7000010B503F070
:1015D0001DFC03F0CDFB0348006840F00400014906
:1015E000086010BD9CEF00E010B5024800F002FB5F
:1015F00010BD00009013002410B5024800F0FAFA64
:1016000010BD00000814002410B5024800F0F2FAE2
:1016100010BD0000200A002410B5024800F0EAFACC
:1016200010BD0000980A00240146087810381823DD
:10163000B0FBF3F20848805CC865032A05D9086846
:101640006FF30900001D886503E008686FF3090067
:101650008865886D704700006274000810B500212D
:101660000268174B9A4213D8154B8C3B9A420FD302
:101670000378083B1424B3FBF4F1124B03EB810312
:101680000366104B8033436601238B40836616E06C
:101690000378103B1824B3FBF4F10B4B9A4204D8A7
:1016A000094BA83B9A4200D30831084B03EB810356
:1016B0000366064B8033436601238B40836610BD6F
:1016C0009454025800580258B804024000080240DE
:1016D00010B502680179E9B108291BD80E4B9A426E
:1016E0000CD80D4B8C3B9A4208D34B1E0B4C04EB91
:1016F0008303C366094B4033036707E04B1E084C66
:1017000004EB8303C366064B403303674B1E01247F
:101710009C40446710BD0000945402580059025880
:1017200000090240014600208A69D2B98A6A32B1B2
:10173000012A0DD0022A03D0032A10D10EE000BFE7
:10174000CA6A02F08072B2F1807F00D1012007E006
:10175000CA6AB2F1C07F00D1012001E000E000BF01
:1017600036E08A69B2F5005F1BD18A6A32B1012A7C
:1017700007D0022A03D0032A11D10AE000BF0120BA
:101780000EE0CA6A02F08072B2F1807F00D10120BF
:1017900006E0CA6AB2F1C07F00D1012000E000BFBC
:1017A00016E08A6A32B1012A05D0022A04D0032A3F
:1017B0000CD103E000BF00BF012008E0CA6A02F0BC
:1017C0008072B2F1807F00D1012000E000BF00BF35
:1017D00070470000F0B5846DD0E919657560C56E7D
:1017E00015B1D0E91C657560244E0568B54205D376
:1017F000234E0568B54201D8012500E00025CDB192
:1018000090F85C603F25B540A56005682D6825F41B
:1018100080250668356005686B608568402D04D1B9
:101820000568AA600568E96026E00568A9600568A2
:10183000EA6021E0134E0568B5421DD3114E8C3687
:101840000568B54218D80F4D2D1F2D6890F85C70B3
:101850000126BE4035430B4E361F356005686B6070
:101860008568402D04D10568AA600568E96003E039
:101870000568A9600568EA60F0BD0000100002403C
:10188000B804024008540258704700002DE9F041A6
:1018900004460025002600F0B9FE074614B90120D1
:1018A000BDE8F08194F83500022808D080206065FA
:1018B00000BF002084F8340000BF0120F0E7424957
:1018C0002068884205D341492068884201D8012018
:1018D00000E0002070B12068006820F01E00216840
:1018E00008602068406920F0800021684861A56D8B
:1018F000266806E02068006820F00E002168086075
:101900002668206E006820F48070216E08602E49E1
:10191000206888420AD32D492068884206D820686A
:10192000006820F001002168086005E02068006878
:1019300020F001002168086010E000F067FEC01B85
:1019400005280BD92020606500BF002084F83400F2
:1019500000BF032084F835000120A1E7306800F0C3
:1019600001000028E9D118492068884205D31749A9
:101970002068884201D8012000E0002028B194F8B6
:101980005C103F208840A86005E094F85C100120BE
:1019900088400F490860D4E919104860E06E40B1F2
:1019A000E06E006820F48070E16E0860D4E91C10DD
:1019B000486000BF002084F8340000BF012084F894
:1019C000350000206CE7000010000240B80402401F
:1019D0000454025810B504460CB9012010BD94F807
:1019E0003500022803D0802060650120F6E73449E5
:1019F0002068884205D333492068884201D80120F5
:101A000000E00020C0B1042084F835002C49206893
:101A100088420AD32B492068884206D8206800688B
:101A200020F001002168086048E02068006820F08C
:101A300001002168086041E02068006820F00E0085
:101A4000216808601E49206888420AD31D49206821
:101A5000884206D82068006820F0010021680860EC
:101A600005E02068006820F0010021680860206E11
:101A7000006820F48070216E086094F85C100120EA
:101A8000884011490860D4E919104860E06E40B1FF
:101A9000E06E006820F48070E16E0860D4E91C10EC
:101AA000486000BF002084F8340000BF012084F8A3
:101AB0003500206D10B12046216D884700208DE74C
:101AC00010000240B80402400454025870B50446A5
:101AD00000250CB9012070BD94F83500022803D10F
:101AE000800260650120F6E73D49206888420AD3FC
:101AF0003C492068884206D82068006820F0010030
:101B00002168086005E02068006820F00100216875
:101B1000086033492068884205D3324920688842EA
:101B200001D8012000E00020B8B100202168086041
:101B300021684860216888602168C8602168086160
:101B40002120216848612046FFF76EFD054694F884
:101B50005C103F208840A8601CE023492068884230
:101B600006D321498C312068884201D8012000E049
:101B7000002078B100202168086021684860216851
:101B800088602168C86094F85C100120884016497C
:101B9000091F08602046FFF761FD206E28B1002074
:101BA000216E0860D4E919104860606858B1606817
:101BB000082808D82046FFF78BFD0020E16E08605A
:101BC000D4E91C1048600020E0662067606760650B
:101BD00084F8350000BF84F8340000BF00BF7AE706
:101BE00010000240B8040240085402580146486DF3
:101BF000704700002DE9F843044600270025002027
:101C00000090FE4800684FF41651B0FBF1F8A66D45
:101C10003768FB492068884205D3FA492068884222
:101C200001D8012000E0002000287BD094F85C104F
:101C300008208840384000B3F1492068884208D322
:101C4000F0492068884204D82068006800F0040049
:101C500003E02068006800F0080070B120680068A8
:101C600020F004002168086094F85C100820884087
:101C7000B060606D40F00100606594F85C10E2486F
:101C800088403840C8B1DE492068884208D3DD4921
:101C90002068884204D82068406900F0800002E093
:101CA00020680068002040B194F85C10D648884055
:101CB000B060606D40F00200606594F85C10D2483E
:101CC000C01C88403840D0B1CD492068884208D334
:101CD000CC492068884204D82068006800F00200DF
:101CE00002E020680068002048B194F85C10C64803
:101CF000C01C8840B060606D40F00400606594F8DE
:101D00005C1010208840384030B3BD4920688842BC
:101D100009D3BC492068884205D82068006800F0D3
:101D2000080004E0EFE02068006800F0040098B1CB
:101D300094F85C1010208840B0602068006800F4BF
:101D4000802080B12068006800F4002028B9206C51
:101D500010B12046216C884715E0A06C98B1204650
:101D6000A16C88470FE02068006800F4807028B9F3
:101D70002068006820F0080021680860206C10B11D
:101D80002046216C884794F85C1020208840384019
:101D9000002873D09A492068884208D3994920685E
:101DA000884204D82068006800F0100003E0206832
:101DB000006800F00200002860D094F85C10202039
:101DC0008840B06094F83500042829D12068006864
:101DD00020F01600216808602068406920F080002B
:101DE00021684861206C08B9A06C28B1206800689F
:101DF00020F008002168086094F85C103F208840BB
:101E0000B06000BF002084F8340000BF012084F8D7
:101E10003500206D10B12046216D8847BDE8F8835C
:101E20002068006800F4802080B12068006800F419
:101E3000002028B9606C10B12046616C88471DE015
:101E4000E06BD8B12046E16B884717E02068006856
:101E500000F4807068B92068006820F010002168E4
:101E6000086000BF002084F8340000BF012084F81F
:101E70003500E06B10B12046E16B8847606D0028AB
:101E800040D0606D00F0010090B3042084F835006C
:101E90005B49206888420AD35A492068884206D89C
:101EA0002068006820F001002168086005E02068D3
:101EB000006820F001002168086000BF0098401C05
:101EC0000090404500D905E02068006800F001005E
:101ED0000028F3D100BF00BF002084F8340000BF09
:101EE0002068006800F0010018B1032084F8350074
:101EF00002E0012084F83500E06C002802D0204682
:101F0000E16C884797E041492068884206D33F4901
:101F10008C312068884201D8012000E00020002890
:101F200053D0256839480838006894F85C200421AB
:101F300091400840E0B1286800F00400C0B1286872
:101F400000F0200018B9286820F0040028602F480D
:101F5000001F006894F85C200421914008432B493D
:101F6000091F0860206C80B32046216C884762E01E
:101F700026480838006894F85C2002219140084007
:101F800020B3286800F0020000B3286800F02000A9
:101F900058B9286820F00A00286000BF002084F8A3
:101FA000340000BF012084F835001848001F006885
:101FB00094F85C200221914008431449091F0860ED
:101FC000E06B10B12046E16B884734E00F480838D9
:101FD000006894F85C2008219140084058B32868B4
:101FE00000F0080038B3286820F00E002860074889
:101FF000001F006894F85C20012109E02C000024F7
:1020000010000240B8040240010080000854025849
:1020100091400843094908600120606500BF002025
:1020200084F8340000BF012084F83500E06C10B162
:102030002046E16C884700BFF0E6000004540258D7
:102040002DE9F0410446002500F0E0FA064600279D
:1020500014B90120BDE8F08179492068884205D390
:1020600078492068884201D8012000E0002000283B
:1020700071D0606A00B100BF00BF002084F8340056
:1020800000BF022084F835006D49206888420AD3D9
:102090006C492068884206D82068006820F001005A
:1020A0002168086005E02068006820F001002168D0
:1020B00008600BE000F0AAFA801B052806D9202052
:1020C0006065032084F835000120C3E720680068BC
:1020D00000F001000028EDD1206805685A4805404D
:1020E000D4E9020108432169084361690843A169F1
:1020F0000843E1690843216A08430543606A0428EC
:1021000003D1D4E90B01084305432068056020682A
:10211000456925F00705606A0543606A04280DD10A
:10212000A06A0543E06A48B12046FFF7FBFA28B1F0
:1021300040206065012084F835008BE72068456108
:102140002046FFF771FA074694F85C103F2088405C
:10215000B8604DE0FFE73D492068884206D33B491F
:102160008C312068884201D8012000E00020B8B3FB
:1021700000BF002084F8340000BF022084F835003E
:102180002068056847F6F0708543A068402801D1B3
:10219000102105E0A068802801D1C10100E00021E4
:1021A000E06841EAD001206941EAD001606941EA72
:1021B000D001A06941EAD0002022E16902EAD10100
:1021C0000843216A40EA11100543206805601F4951
:1021D0002068401A1421B0FBF1F08000E06507E0B0
:1021E000FFE740206065032084F83500012031E7D7
:1021F0002046FFF733FAA068802801D100206060F4
:102200002079216E0860D4E919104860606860B1D7
:102210006068082809D82046FFF75AFA0020E16EC6
:102220000860D4E91C10486003E00020E0662067E5
:10223000606700206065012084F83500002009E710
:1022400010000240B80402403F8010FE08540258BB
:102250002DE9F04104460D4616461F464FF0000892
:1022600014B90120BDE8F08100BF94F834000128C2
:1022700001D10220F6E7012084F8340000BF94F871
:10228000350001287CD1022084F8350000206065EB
:102290004149206888420AD340492068884206D8CC
:1022A0002068006820F001002168086005E02068CF
:1022B000006820F00100216808603B46324629464C
:1022C0002046FFF787FA34492068884205D333490E
:1022D0002068884201D8012000E00020B0B12068C9
:1022E000006820F01E0040F0160021680860206899
:1022F000406940F0800021684861206CB0B12068DE
:10230000006840F00800216808600FE0206800685D
:1023100020F00E0040F00A0021680860206C28B10F
:102320002068006840F0040021680860206E0068A2
:1023300000F4803028B1206E006840F48070216E77
:102340000860E06E28B1E06E006840F48070E16ED5
:1023500008601149206888420BD3104920688842E0
:1023600007D82068006840F001002168086011E08B
:1023700006E02068006840F001002168086009E07C
:1023800000BF002084F8340000BF4FF40060606597
:102390004FF00108404665E710000240B8040240D3
:1023A0000348006840F001000149086070470000E0
:1023B00020040058F8B502460B46002100260024F0
:1023C0000020824D00BFFCE0012707FA01F61F68DC
:1023D00007EA0604B4427CD15F68022F02D05F682E
:1023E000122F1AD14FEAD10C02F1200757F82C0016
:1023F0004F074FEAD76C0F2707FA0CF7B8434FEA9D
:10240000417C4FEADC6C1F6907FA0CF738434FEA4E
:10241000D10C02F1200747F82C0010684FEA410C5C
:10242000032707FA0CF7B8431F7907F003074FEAB1
:10243000410C07FA0CF7384310605F68012F08D091
:102440005F68022F05D05F68112F02D05F68122FDE
:1024500017D190684FEA410C032707FA0CF7B843ED
:102460004FEA410CDF6807FA0CF738439060506878
:1024700001278F40B8431F79C7F300178F403843B7
:102480005060D0684FEA410C032707FA0CF7B843B5
:102490004FEA410C9F6807FA0CF73843D0605F6839
:1024A00007F08057B7F1805F95D100BF484F3F6874
:1024B00047F00207DFF818C1CCF8007067463F68A4
:1024C00007F00207009700BF00BF424F4FEA910C90
:1024D00000E075E057F82C008F074FEA177C0F27B4
:1024E00007FA0CF7B8433C4FBA4201D100272DE060
:1024F0003A4FBA4201D1012728E0394FBA4201D1FF
:10250000022723E0374FBA4201D103271EE0364F9E
:10251000BA4201D1042719E0344FBA4201D105274C
:1025200014E0334FBA4201D106270FE0314FBA42CF
:1025300001D107270AE0304FBA4201D1082705E050
:102540002E4FBA4201D1092700E00A274FEA817CC9
:102550004FEA1C7C07FA0CF738431E4F4FEA910CE8
:1025600047F82C002868A0435F6807F48037B7F568
:10257000803F00D1204328606868A0435F6807F46B
:102580000037B7F5003F00D1204368604FF0B047F7
:102590003868A0435F6807F48017B7F5801F00D143
:1025A00020434FF0B04738607868A0435F6807F475
:1025B0000017B7F5001F00D120434FF0B0477860F7
:1025C000491C1029FFF400AFF8BD0000800000583E
:1025D000F44402580804005800000258000402584D
:1025E00000080258000C025800100258001402584B
:1025F00000180258001C02580020025800240258FB
:102600000AB1018300E0418370470000014800687F
:10261000800870476800002403480068034909786F
:1026200008440149086070476800002470000024D5
:1026300010B5032000F07EF80F2000F007F808B175
:10264000012010BD00F028F80020FAE770B504461C
:102650000E4800784FF47A61B1FBF0F00C4909683C
:10266000B1FBF0F5284601F07BFE08B1012070BDFA
:10267000102C07D200222146501E00F01EF80548FB
:10268000046001E00120F2E70020F0E77000002480
:102690002C0000246C0000247047014608460028E6
:1026A00009DB00F01F0301229A4043099B0003F15C
:1026B000E023C3F8002100BF70472DE9F05F80469A
:1026C0000D46164603F0A2FC074639462A46334615
:1026D00001F00700C0F1070ABAF1040F02D94FF068
:1026E000040A01E0C0F1070AD14600F1040ABAF178
:1026F000070F02D24FF0000A01E0A0F1030AD4460E
:102700004FF0010A0AFA09FAAAF1010A0AEA020AD2
:102710000AFA0CFA4FF0010B0BFA0CFBABF1010BB0
:102720000BEA030B4AEA0B042146404603F076FC11
:10273000BDE8F09F00BF00F00702064B19684FF696
:10274000FF031940044B0B4343EA0221014B19607C
:1027500000BF70470CED00E00000FA0510B501F075
:1027600067F90949096801F470614FF4807292FABF
:10277000A2F2B2FA82F2D140044A515CC840044944
:1027800008600846006810BD18440258227400080A
:102790002C00002410B501F003F90749096801F085
:1027A0007001102292FAA2F2B2FA82F2D140034AE8
:1027B000515CC84010BD000020440258227400083B
:1027C00070B5014600220120002300249FED811AEC
:1027D000B0EE410A9FED7F1AF0EE410A7E4D2D6862
:1027E00005F003027C4D2D68C5F305307A4D2D1D93
:1027F0002D6805F01003784D14352D68C5F3CC0510
:1028000015FB03F501EE105AB8EE411AB0EE410A7D
:1028100022B1012A4DD0022A7DD169E06E4D283DBA
:102820002D68C5F340152DB36B4D283D2D68C5F3BC
:10283000C1066A4D25FA06F4B4FBF0F501EE105A14
:10284000F8EE411A9FED661A80EE012A624D1035AE
:102850002D68C5F3080501EE105AB8EE411A32EEA4
:10286000011AB7EE002A31EE021A21EE811AF0EEBB
:10287000410A1DE0594DB5FBF0F501EE105AF8EE96
:10288000411A9FED571A80EE012A534D10352D68DD
:10289000C5F3080501EE105AB8EE411A32EE011ADE
:1028A000B7EE002A31EE021A21EE811AF0EE410A4B
:1028B0005EE04C4DB5FBF0F501EE105AB8EE412A42
:1028C0009FED471AC0EE011A434D10352D68C5F330
:1028D000080501EE105AB8EE411A31EE811AF7EEF2
:1028E000001A31EE211A22EE011AF0EE410A3FE001
:1028F0003D4DB5FBF0F501EE105AF8EE411A9FED93
:10290000381A80EE012A344D10352D68C5F30805BC
:1029100001EE105A00E00CE0B8EE411A32EE011A56
:10292000B7EE002A31EE021A21EE811AF0EE410ACA
:102930001EE02C4DB5FBF0F501EE105AB8EE412A21
:102940009FED271AC0EE011A234D10352D68C5F3EF
:10295000080501EE105AB8EE411A31EE811AF7EE71
:10296000001A31EE211A22EE011AF0EE410A00BFE0
:1029700000BF194D10352D68C5F346256D1C01EEBD
:10298000105AB8EE411AC0EE811ABCEEE11A81ED80
:10299000001A114D10352D68C5F306456D1C01EE6A
:1029A000105AB8EE411AC0EE811ABCEEE11A81ED60
:1029B000011A094D10352D68C5F306656D1C01EE31
:1029C000105AB8EE411AC0EE811ABCEEE11A81ED40
:1029D000021A70BD00000000284402580090D00385
:1029E0000000004600093D0040787D0170B50146B9
:1029F00000220120002300249FED811AB0EE410A3D
:102A00009FED7F1AF0EE410A7E4D2D6805F003021E
:102A10007C4D2D68C5F305507A4D2D1D2D6805F4AC
:102A20008073784D1C352D68C5F3CC0515FB03F577
:102A300001EE105AB8EE411AB0EE410A22B1012A55
:102A40004DD0022A7DD169E06E4D283D2D68C5F339
:102A500040152DB36B4D283D2D68C5F3C1066A4D59
:102A600025FA06F4B4FBF0F501EE105AF8EE411A1F
:102A70009FED661A80EE012A624D18352D68C5F368
:102A8000080501EE105AB8EE411A32EE011AB7EEFF
:102A9000002A31EE021A21EE811AF0EE410A1DE001
:102AA000594DB5FBF0F501EE105AF8EE411A9FEDC5
:102AB000571A80EE012A534D18352D68C5F30805C5
:102AC00001EE105AB8EE411A32EE011AB7EE002AA2
:102AD00031EE021A21EE811AF0EE410A5EE04C4D11
:102AE000B5FBF0F501EE105AB8EE412A9FED471AFA
:102AF000C0EE011A434D18352D68C5F3080501EEE7
:102B0000105AB8EE411A31EE811AF7EE001A31EE82
:102B1000211A22EE011AF0EE410A3FE03D4DB5FBCD
:102B2000F0F501EE105AF8EE411A9FED381A80EEDA
:102B3000012A344D18352D68C5F3080501EE105AE9
:102B400000E00CE0B8EE411A32EE011AB7EE002AAE
:102B500031EE021A21EE811AF0EE410A1EE02C4DF0
:102B6000B5FBF0F501EE105AB8EE412A9FED271A99
:102B7000C0EE011A234D18352D68C5F3080501EE86
:102B8000105AB8EE411A31EE811AF7EE001A31EE02
:102B9000211A22EE011AF0EE410A00BF00BF194DC2
:102BA00018352D68C5F346256D1C01EE105AB8EE98
:102BB000411AC0EE811ABCEEE11A81ED001A114DE6
:102BC00018352D68C5F306456D1C01EE105AB8EE98
:102BD000411AC0EE811ABCEEE11A81ED011A094DCD
:102BE00018352D68C5F306656D1C01EE105AB8EE58
:102BF000411AC0EE811ABCEEE11A81ED021A70BDD5
:102C000000000000284402580090D0030000004655
:102C100000093D0040787D012DE9F0410446002582
:102C20000026206800F00060B0F1006F30D1606EC7
:102C300048B1B0F5801F0DD0B0F5001F10D0B0F531
:102C4000401F15D113E0F948006840F40030F749FF
:102C500008600FE00221201D01F0DEFE054609E0BC
:102C6000022104F1240001F06FFF054602E001E0BB
:102C7000012500BF00BF55B9EC482430006820F49E
:102C80004010616E0843E9492431086000E02E439A
:102C9000208800F48070B0F5807F2DD1606D05280C
:102CA0001AD2DFE800F0030A10171800DF480068A6
:102CB00040F40030DD49086010E00021201D01F0E3
:102CC000ABFE05460AE0002104F1240001F03CFFC0
:102CD000054603E002E001E0012500BF00BF55B951
:102CE000D2482430006820F00700616D0843CF49C6
:102CF0002431086000E02E43208800F40070B0F515
:102D0000007F33D1A06D802817D003DC40B140286C
:102D10001CD10CE0C02817D0B0F5807F16D114E08C
:102D2000C248006840F40030C049086010E000214B
:102D3000201D01F071FE05460AE0002104F1240087
:102D400001F002FF054603E002E001E0012500BFBB
:102D500000BF55B9B5482430006820F4E070A16D7B
:102D60000843B2492431086000E02E43208800F473
:102D70008060B0F5806F38D1D4F8A400B0F5800F32
:102D800019D004DC50B1B0F5001F1DD10DE0B0F535
:102D9000C00F17D0B0F5000F16D114E0A34800689B
:102DA00040F40030A149086010E00021201D01F02E
:102DB00033FE05460AE0002104F1240001F0C4FEC0
:102DC000054603E002E001E0012500BF00BF5DB958
:102DD00096482C30006820F46000D4F8A410084312
:102DE00092492C31086000E02E43208800F40060F6
:102DF000B0F5006F38D1D4F8A800B0F1007F19D039
:102E000004DC50B1B0F1807F1DD10DE0B0F1407F06
:102E100017D0B0F1806F16D114E08448006840F4F8
:102E200000308249086010E00021201D01F0F4FD0F
:102E300005460AE0002104F1240001F085FE054664
:102E400003E002E001E0012500BF00BF5DB9774863
:102E50002C30006820F0E060D4F8A81008437349D3
:102E60002C31086000E02E43206800F00070B0F1C3
:102E7000007F27D1A06CA0B1102804D0202809D051
:102E800030280FD10CE06948006840F400306749F1
:102E9000086009E00221201D01F0BEFD054603E0A7
:102EA00002E001E0012500BF00BF55B95F482030B6
:102EB000006820F03000A16C08435C4920310860B4
:102EC00000E02E43208800F48050B0F5805F36D1BA
:102ED000E06DB0F5005F19D004DC50B1B0F5805F53
:102EE0001DD10DE0B0F5405F17D0B0F5804F16D181
:102EF00014E04E48006840F400304C49086010E08F
:102F00000021201D01F088FD05460AE0002104F1A2
:102F1000240001F019FE054603E002E001E001256E
:102F200000BF00BF55B941482430006820F4E0409C
:102F3000E16D08433D492431086000E02E432088BC
:102F400000F40050B0F5005F34D1206EB0F5403F82
:102F50001DD007DC68B1B0F5803F0BD0B0F5003F65
:102F600018D10DE0B0F5802F12D0B0F5A02F11D1FF
:102F70000FE011E00121201D01F04EFD05460BE0A0
:102F8000012104F1240001F0DFFD054604E003E027
:102F900002E001E0012500BF00BF55B923482430FD
:102FA000006820F4E020216E0843204924310860A5
:102FB00000E02E43208800F48040B0F5804F38D1E7
:102FC000D4F8AC00B0F1405F1DD007DC68B1B0F1BF
:102FD000805F0BD0B0F1005F18D10DE0B0F1804FF1
:102FE00012D0B0F1A04F11D10FE011E00121201D4E
:102FF00001F012FD05460BE0012104F1240001F06F
:10300000A3FD054604E003E002E001E0012500BF66
:1030100000BF6DB905482C30006820F0E040D4F8BE
:10302000AC10084301492C31086002E02C440258DE
:103030002E43208800F40040B0F5004F26D1E06E0A
:1030400098B1B0F1805F03D0B0F1005F0ED106E01F
:10305000FA48006840F40030F849086008E00121AF
:10306000201D01F0D9FC054602E001E0012500BF6A
:1030700000BF55B9F1482430006820F04050E16E9F
:103080000843EE492431086000E02E43206800F038
:103090008070B0F1807F27D1606CA0B1012804D08E
:1030A000022809D003280FD10CE0E448006840F45E
:1030B0000030E249086009E00221201D01F0ACFC6B
:1030C000054603E002E001E0012500BF00BF55B95D
:1030D000DA482030006820F00300616C0843D749CB
:1030E0002031086000E02E43206800F48000B0F535
:1030F000800F7DD1D248006840F48070D0490860CC
:10310000FFF784FA074606E0FFF780FAC01B642841
:1031100001D9032505E0CA48006800F48070002842
:10312000F2D000BF8DBBC5484430006800F4407049
:10313000B4F8B01001F44071884214D0BF48443054
:10314000006820F44078BD484430006840F4803086
:10315000BA49443108600846006820F480300860AD
:103160000846C0F80080D4F8B000B0F5807F15D1D3
:10317000FFF74CFA074609E0FFF748FAC01B41F297
:103180008831884202D9032507E038E0AB48443053
:103190000068C0F340000028EED000BF4DBB00BF68
:1031A000B4F8B00000F44070B0F5407F0ED1A348F1
:1031B0001C38006820F47C51A24AD4F8B0001040BA
:1031C00041EA10109D491C39086007E09B481C38F3
:1031D000006820F47C5099491C39086097484430B5
:1031E0000068B4F8B010C1F30B010843934901E043
:1031F00006E002E04431086002E02E4300E02E4386
:10320000207800F0010068B3A06F182819D005DC01
:1032100048B1082808D0102816D10BE0202811D07A
:10322000282811D10FE011E00121201D01F0F4FB4D
:1032300005460BE0012104F1240001F085FC054660
:1032400004E003E002E001E0012500BF00BF55B942
:103250007A482830006820F03800A16F0843774989
:103260002831086000E02E43207800F00200022898
:1032700028D1606F062815D2DFE800F003040A1198
:10328000121311E00121201D01F0C6FB05460BE0E1
:10329000012104F1240001F057FC054604E003E09D
:1032A00002E001E0012500BF00BF55B963482830A6
:1032B000006820F00700616F08436049283108600A
:1032C00000E02E43207800F0040004282AD1D4F82E
:1032D0009000062815D2DFE800F003040A1112134B
:1032E00011E00121201D01F097FB05460BE00121B3
:1032F00004F1240001F028FC054604E003E002E0AC
:1033000001E0012500BF00BF5DB94C482C300068CA
:1033100020F00700D4F89010084348492C31086089
:1033200000E02E43207800F02000202836D1D4F889
:103330008C00B0F1405F1DD007DC68B1B0F1805F58
:103340000BD0B0F1005F18D10DE0B0F1804F12D07A
:10335000B0F1A04F11D10FE011E00021201D01F0CC
:103360005BFB05460BE0022104F1240001F0ECFBBD
:10337000054604E003E002E001E0012500BF00BFD4
:103380005DB92E482830006820F0E040D4F88C1059
:1033900008432A492831086000E02E43207800F0D5
:1033A0004000402836D1D4F89800B0F5406F1DD0C9
:1033B00007DC68B1B0F5806F0BD0B0F5006F18D1A5
:1033C0000DE0B0F5805F12D0B0F5A05F11D10FE035
:1033D00011E00021201D01F01FFB05460BE002213A
:1033E00004F1240001F0B0FB054604E003E002E034
:1033F00001E0012500BF00BF5DB910482C30006816
:1034000020F4E050D4F8981008430C492C3108609F
:1034100000E02E43207800F0800080283BD1D4F8D3
:103420009C00B0F5C04F24D00EDCA0B1B0F5005F19
:1034300012D0B0F5804F1FD114E000002C44025888
:1034400000480258FFFCFF0FB0F5004F12D0B0F556
:10345000204F11D10FE011E00021201D01F0DCFA16
:1034600005460BE0022104F1240001F06DFB054646
:1034700004E003E002E001E0012500BF00BF4DB918
:10348000B248006820F46040D4F89C100843AF496B
:10349000086000E02E43207800F00800082816D1CC
:1034A000D4F88000B0F5805F06D1022104F1240039
:1034B00001F04AFB06430AE0A448001F006820F41C
:1034C0004050D4F880100843A049091F08602078B4
:1034D00000F01000102814D1D4F89400B0F5807FCB
:1034E00006D1022104F1240001F02EFB064308E07E
:1034F0009648006820F44070D4F89410084393492B
:103500000860206800F40020B0F5002F26D1D4F820
:10351000A00030B1B0F5803F09D0B0F5003F0ED12A
:103520000CE00021201D01F077FA054609E0022198
:1035300004F1240001F008FB054602E001E001254A
:1035400000BF00BF4DB98148006820F44030D4F876
:10355000A01008437D49086000E02E43206800F475
:103560008020B0F5802F2DD1D4F88400B0F5801FD5
:1035700006D0B0F5001F0CD0B0F5401F11D10FE000
:1035800072482C38006840F4003070492C390860CB
:1035900009E0012104F1240001F0D6FA054602E019
:1035A00001E0012500BF00BF5DB96848001F006849
:1035B00020F44010D4F8841008436449091F0860BF
:1035C00000E02E43206800F48030B0F5803F24D125
:1035D000E06C18B1B0F5803F0FD108E05B482C38A3
:1035E000006840F4003059492C39086007E0022196
:1035F000201D01F011FA054601E0012500BF00BFC2
:1036000055B952480C38006820F48030E16C08430A
:103610004E490C39086000E02E43206800F000504D
:10362000B0F1005F05D1022104F1240001F08CFA11
:103630000643206800F40030B0F5003F27D1E06F6A
:10364000A0B1B0F5807F06D0B0F5007F0CD0B0F50A
:10365000407F0CD109E03D482C38006840F4003030
:103660003A492C39086004E003E002E001E001255A
:1036700000BF00BF55B93548001F006820F44070F6
:10368000E16F08433149091F086000E02E432068BC
:1036900000F48010B0F5801F09D12C48083800686C
:1036A00020F00040216F084328490839086020684D
:1036B00000F08050B0F1805F0AD12448483800689B
:1036C00020F48040D4F8B4100843204948390860F9
:1036D000206800F40010B0F5001F09D11B4808381D
:1036E000006820F08070A16E08431849083908600E
:1036F000206800F08040B0F1804F11D100BF134826
:103700004838006820F400401049483908600846ED
:103710000068D4F8B81008430C494839086000BF65
:10372000206800F00040B0F1004F09D107480C3884
:10373000006820F04050216D084304490C390860AE
:1037400016B90020BDE8F0810120FBE7584402587B
:1037500070B504460D4600268D48006800F007004D
:10376000A8420ED28A48006820F007002843884902
:1037700008600846006800F00700A84201D0012058
:1037800070BD207800F00200022807D1814800684F
:1037900020F00F00E16808437E490860207800F0BF
:1037A0000100002851D07B48006820F47060A168B7
:1037B0000843784908606068022807D175481838BE
:1037C0000068C0F34040F8B90120D9E760680328D9
:1037D00007D1704818380068C0F34060A0B90120D4
:1037E000CEE76068012807D16A4818380068C0F33E
:1037F000002048B90120C3E7664818380068C0F3C4
:10380000800008B90120BBE762480838006820F052
:103810000700616808435F4908390860FEF7F6FE53
:1038200006466068022811D108E0FEF7EFFE801B13
:1038300041F28831884201D90320A1E75548083870
:10384000006800F038001028EFD13AE060680328E3
:1038500011D108E0FEF7DAFE801B41F28831884280
:1038600001D903208CE74B480838006800F0380085
:103870001828EFD125E06068012811D108E0FEF793
:10388000C5FE801B41F28831884201D9032077E7C9
:1038900040480838006800F038000828EFD110E0F0
:1038A00008E0FEF7B3FE801B41F28831884201D95F
:1038B000032065E737480838006800F03800002822
:1038C000EFD13348006800F00700A8420ED9304815
:1038D000006820F0070028432D490860084600686A
:1038E00000F00700A84201D0012049E7207800F04D
:1038F0000400042807D12748006820F070002169DF
:10390000084324490860207800F00800082809D1FD
:103910002048001D006820F07000616908431D49BF
:10392000091D0860207800F01000102809D11948FE
:10393000001D006820F4E060A16908431549091DD5
:103940000860207800F02000202809D111480830B4
:10395000006820F07000E16908430E4908310860F2
:1039600000F066F80B49096801F470614FF4807249
:1039700092FAA2F2B2FA82F2D140074A515CC840F0
:10398000064908600F20FEF761FE0020F8E60000FF
:103990000020005218440258227400082C00002411
:1039A00010B5FEF7DBFE0949096801F00F0101229D
:1039B00092FAA2F2B2FA82F2D140054A515CC840B2
:1039C000044908600846006810BD00001844025809
:1039D000227400083000002410B5FFF7E1FF07490A
:1039E000096801F07001102292FAA2F2B2FA82F292
:1039F000D140034A515CC84010BD00001C4402582D
:103A00002274000810B5FFF7CBFF0749096801F4DD
:103A1000E0614FF4807292FAA2F2B2FA82F2D140DF
:103A2000024A515CC84010BD1C4402582274000870
:103A300070B5012500EE905A0022012100230024D8
:103A4000DFED861AB0EE610ADFED841AB0EE611A7E
:103A50000020834D2D6805F0380535B1082D15D0AF
:103A6000102D15D0182D7CD114E07D4D103D2D6802
:103A7000C5F3401545B17A4D103D2D68C5F3C1061B
:103A8000784D25FA06F000E07648E5E07648E3E078
:103A90007648E1E0724D18352D6805F00302704D4F
:103AA00018352D68C5F305116D4D1C352D6805F0D1
:103AB00001036B4D24352D68C5F3CC0515FB03F5CB
:103AC00001EE905AF8EE611AB0EE610A22B1012AB5
:103AD0004FD0022A7DD16BE0614D103D2D68C5F3BA
:103AE00040152DB35E4D103D2D68C5F3C1065D4DEB
:103AF00025FA06F4B4FBF1F501EE905AB8EE612A0E
:103B0000DFED5B1AC0EE212A554D20352D68C5F337
:103B1000080501EE905AF8EE611A72EEA11AF7EE5E
:103B2000002A71EEA21A62EE211AB0EE611A1FE0AD
:103B30004C4DB5FBF1F501EE905AB8EE612ADFED80
:103B40004C1AC0EE212A464D20352D68C5F30805D4
:103B500001EE905AF8EE611A72EEA11AF7EE002A01
:103B600000E077E071EEA21A62EE211AB0EE611A5F
:103B70005EE03D4DB5FBF1F501EE905AB8EE612ADD
:103B8000DFED3B1AC0EE212A354D20352D68C5F3F7
:103B9000080501EE905AF8EE611A72EEA11AF7EEDE
:103BA000002A71EEA21A62EE211AB0EE611A3FE00D
:103BB0002E4DB5FBF1F501EE905AB8EE612ADFED1E
:103BC0002C1AC0EE212A264D20352D68C5F3080594
:103BD00000E00EE001EE905AF8EE611A72EEA11AC2
:103BE000F7EE002A71EEA21A62EE211AB0EE611A07
:103BF0001EE01D4DB5FBF1F501EE905AF8EE612A7D
:103C0000DFED1B1A80EE212A154D20352D68C5F3F6
:103C1000080501EE905AF8EE611A72EE211AB7EE1D
:103C2000002A71EE821A62EEA11AB0EE611A00BF8C
:103C300000BF0B4D20352D68C5F346256D1C00EEE9
:103C4000905AF8EE601A81EE212AFCEEC21A11EEAB
:103C5000900A01E0044800BF00BF70BD00000000F2
:103C6000104402580090D00300093D0040787D01C7
:103C70000000004670B504460025207800F00100E1
:103C8000002872D0F948006800F0380010280CD0E5
:103C9000F648006800F03800182812D1F3481830B0
:103CA000006800F0030002280BD1F04810380068CB
:103CB000C0F3404000286DD0606800286AD1012020
:103CC00070BD00BF6068B0F5803F08D1E74810388C
:103CD000006840F48030E549103908602EE06068E3
:103CE00068B9E2481038006820F48030DF491039A4
:103CF00008600846006820F4802008601EE06068C4
:103D0000B0F5A02F0DD1D9481038006840F48020BC
:103D1000D649103908600846006840F480300860D1
:103D20000CE0D2481038006820F48030CF491039B8
:103D300008600846006820F48020086000BF6068C2
:103D4000A0B1FEF763FC054608E0FEF75FFC401BF0
:103D500041F28831884201D90320B1E7C3481038C5
:103D60000068C0F340400028EFD013E0FEF74EFC9F
:103D7000054608E0FEF74AFC401B41F288318842C4
:103D800001D903209CE7B94810380068C0F34040CF
:103D90000028EFD1207800F00200022847D1B34874
:103DA000006800F0380058B1B048006800F03800F2
:103DB00018283ED1AD481830006800F00300B8BBA9
:103DC000AA4810380068C0F3800018B1E06808B94C
:103DD000012075E7A5481038006820F01900E16857
:103DE0000843A24910390860FEF710FC054606E0BA
:103DF000FEF70CFC401B022801D9032060E79B481A
:103E000010380068C0F380000028F1D097480C38C3
:103E1000006820F47C304FF47C3292FAA2F2B2FABD
:103E200082F221699140084390490C3908604AE0C8
:103E3000FFE7E06868B38D481038006820F019008B
:103E4000E1680843894910390860FEF7DFFB054641
:103E500006E0FEF7DBFB401B022801D903202FE719
:103E6000824810380068C0F380000028F1D07F48F5
:103E70000C38006820F47C304FF47C3292FAA2F2C5
:103E8000B2FA82F221699140084378490C390860FE
:103E900019E076481038006820F0010073491039A5
:103EA0000860FEF7B3FB054606E0FEF7AFFB401BDC
:103EB000022801D9032003E76C4810380068C0F3DA
:103EC00080000028F1D1207800F01000102877D170
:103ED0006648006800F0380008280CD06348006885
:103EE00000F03800182823D160481830006800F02E
:103EF000030001281CD15D4810380068C0F3002081
:103F000020B1E069802801D00120D9E657480C385B
:103F1000006820F0F8404FF0F84292FAA2F2B2FAAC
:103F200082F2216A9140084350490C39086047E009
:103F3000E06958B34D481038006840F080004B49A4
:103F400010390860FEF762FB054606E0FEF75EFBEF
:103F5000401B022801D90320B2E64448103800680B
:103F6000C0F300200028F1D040480C38006820F051
:103F7000F8404FF0F84292FAA2F2B2FA82F2216AC5
:103F80009140084339490C39086019E03748103826
:103F9000006820F08000354910390860FEF736FBD4
:103FA000054606E0FEF732FB401B022801D903203C
:103FB00086E62E4810380068C0F300200028F1D1B2
:103FC000207800F00800082836D16069D0B1274871
:103FD0006430006840F00100244964310860FEF755
:103FE00015FB054606E0FEF711FB401B022801D930
:103FF000032065E61D4864300068C0F340000028D7
:10400000F1D019E019486430006820F00100174928
:1040100064310860FEF7FAFA054606E0FEF7F6FAA4
:10402000401B022801D903204AE61048643000688A
:10403000C0F340000028F1D1207800F020002028B3
:1040400034D1A069D8B109481038006840F48050D4
:10405000064910390860FEF7D9FA054608E0FEF770
:10406000D5FA401B022803D9032029E61044025840
:10407000AF480068C0F340300028F0D016E0AC48EC
:10408000006820F48050AA490860FEF7BFFA054690
:1040900006E0FEF7BBFA401B022801D903200FE619
:1040A000A3480068C0F340300028F2D1207800F027
:1040B000040004287DD19F48006840F480709D4929
:1040C0000860FEF7A3FA054606E0FEF79FFA401BDC
:1040D000642801D90320F3E59648006800F4807055
:1040E0000028F2D000BFA068012808D190487030A5
:1040F000006840F001008E49703108602DE0A06832
:1041000068B98B487030006820F001008849703130
:1041100008600846006820F0040008601DE0A06800
:1041200005280DD182487030006840F004008049B5
:10413000703108600846006840F0010008600CE03B
:104140007B487030006820F00100794970310860C8
:104150000846006820F00400086000BFA068A0B115
:10416000FEF754FA054608E0FEF750FA401B41F20C
:104170008831884201D90320A2E56D48703000687B
:10418000C0F340000028EFD013E0FEF73FFA0546E9
:1041900008E0FEF73BFA401B41F28831884201D922
:1041A00003208DE5624870300068C0F340000028AD
:1041B000EFD1606A00287CD05D481030006800F0C4
:1041C0003800182876D0606A022874D158480068F0
:1041D00020F0807056490860FEF718FA054606E0A0
:1041E000FEF714FA401B022801D9032068E5504865
:1041F0000068C0F340600028F2D100BFD4E90A1083
:1042000041EA00104A492831096840F2F3329143EB
:104210000843474928310860208E401EC0F308003B
:10422000616B491E4FF47E4202EA41210843218F0F
:10423000491ED20102EA014108433C21095D491EA1
:10424000120202EA0161084339493031086000BFB7
:10425000081D00684FF6F87188434FF6F87292FA1D
:10426000A2F2B2FA82F2A16C914008433049343193
:1042700008602F482C30006820F00C00216C0843A7
:104280002B492C3108600846006820F00200616C60
:10429000084327492C3108600846006840F4803004
:1042A00008600846006840F400300860084600686E
:1042B00002E03BE038E01FE040F480200860084660
:1042C000006840F0010008601948006840F0807004
:1042D00017490860FEF79AF9054606E0FEF796F9D9
:1042E000401B022801D90320EAE411480068C0F30A
:1042F00040600028F2D019E00D48006820F080707E
:104300000B490860FEF782F9054606E0FEF77EF9E4
:10431000401B022801D90320D2E405480068C0F3FD
:1043200040600028F2D101E00120C9E40020C7E488
:104330000044025800480258042808D14FF0E021F8
:10434000096941F004014FF0E022116107E04FF0EC
:10435000E021096921F004014FF0E022116170476A
:1043600070B504462546681EB0F1807F01D3012058
:104370000FE0681E4FF0E02148610F214FF0FF3041
:1043800001F04CFE00204FF0E02188610720086119
:10439000002070BD704710B5044694F879002128BC
:1043A00012D12068806800F0800068B120688068C1
:1043B00020F0800021688860206F10B1206FFDF729
:1043C00065FA204600F0BFFF94F87A00222812D147
:1043D0002068806800F0400068B12068806820F0A4
:1043E000400021688860606F10B1606FFDF74EFA81
:1043F000204600F088FF002010BD70472DE9F041F5
:1044000004462068C569206807682068866805F04A
:104410000F08B8F1000F0DD105F0200050B107F0E2
:10442000200010B906F0805020B1204600F095FF22
:10443000BDE8F081B8F1000F72D05D48304018B986
:1044400007F4907000287AD005F0010048B107F415
:10445000807030B1012021680862E06F40F00100F7
:10446000E06705F0020048B106F0010030B102201B
:1044700021680862E06F40F00400E06705F0040086
:1044800048B106F0010030B1042021680862E06FF5
:1044900040F00200E06705F0080078B107F0200066
:1044A00028B906F0805010B906F0010030B108209C
:1044B00021680862E06F40F00800E067E06F70B3C9
:1044C00005F0200040B107F0200010B906F0805040
:1044D00010B1204600F041FFE06F00F0080020B965
:1044E0002068806800F0400018B3204600F00BFF01
:1044F0002068806800F04000B8B12068806820F033
:10450000400021688860606F58B12A48616F086573
:10451000606FFDF75FFA10B1606F016D88470DE0C5
:104520000DE02046FFF769FF08E02046FFF765FF32
:1045300004E02046FFF761FF0020E06778E705F41C
:10454000801078B106F4800060B14FF480102168CB
:104550000862202084F8790084F87A002046FFF76A
:1045600019FF65E705F0800048B107F0800010B939
:1045700006F4000018B1204601F006FC58E705F0EB
:10458000400030B107F0400018B1204600F0CBFEEB
:104590004EE705F4000040B107F0804028B12068E4
:1045A000006820F080402168086000BF40E70000FC
:1045B00001000010FB51000810B504460CB90120A1
:1045C00010BDA06900B100E000BF94F8790028B9DF
:1045D000002084F87800204600F02AF8242084F88F
:1045E00079002068006820F00100216808602046FA
:1045F00000F0F8FE012800D1E2E7606B10B1204620
:1046000000F04CFD2068406820F49040216848602C
:104610002068806820F02A0021688860206800688F
:1046200040F0010021680860204600F0ACFDC7E7BB
:104630007047000070B504460E46154694F87A009F
:10464000202846D106B10DB9012070BD00BF94F8F5
:104650007800012801D10220F7E7012084F87800D2
:1046600000BF6666A4F868500020E067222084F846
:104670007A001948616FC8631848616F0864184868
:10468000616FC8640020616F0865236803F124012D
:104690002B46626E606FFDF7DBFD00BF002084F8E3
:1046A000780000BF202084F879002068006840F47A
:1046B0008070216808602068806840F001002168EF
:1046C00088602068806840F0400021688860002091
:1046D000BBE70220B9E700006F520008B55200089E
:1046E00013520008704770472DE9F84304460D4601
:1046F00016461F464FF0000994F87900202854D13F
:1047000005B116B90120BDE8F88300BF94F8780020
:10471000012801D10220F6E7012084F8780000BFCB
:1047200000206034E06121206076FDF76FFF814654
:1047300026806680603C21E0B4F86200401EA4F848
:1047400062004B46002280212046009701F05DFB6D
:1047500008B10320D7E7A068B0F5805F0AD12069CF
:1047600040B9A846B8F80000C0F3080021680885E1
:10477000AD1C03E015F8010B21680885B4F8620050
:104780000028D9D14B46002240212046009701F055
:104790003CFB08B10320B6E7202084F8790000BF75
:1047A000002084F8780000BFADE70220ABE70000EE
:1047B00070B504460E46154694F8790020283CD181
:1047C00006B10DB9012070BD00BF94F87800012832
:1047D00001D10220F7E7012084F8780000BFE665E8
:1047E000A4F86050A4F862500020E067212084F80B
:1047F00079001348216FC8631248216F086412487A
:10480000216FC8640020216F0865236803F1280226
:104810002B46E16D206FFDF71BFD402021680862EB
:1048200000BF002084F8780000BF2068806840F056
:104830008000216888600020C5E70220C3E70000EF
:10484000C3520008F952000813520008704770471D
:1048500000BFFEE710B50446012C08D111480068DE
:10486000006820F004000F49096808600BE00D485B
:104870000068006840F004000A49096808601020D8
:104880000849096808622CB1012251030648FDF766
:10489000B7FE05E000224FF400510348FDF7B0FEDB
:1048A00010BD0000A00900240004025800B587B024
:1048B00000BF1948006840F0020017490860084628
:1048C000006800F00200019000BF00BF4FF480506C
:1048D00002900120039000200490059002A90F4847
:1048E000FDF768FD012211030C48FDF789FE4FF426
:1048F00000500290012003900020049003200590B6
:1049000002A90648FDF756FD00224FF40051034866
:10491000FDF776FE07B000BDE044025800040258DF
:1049200010B50446592011490870532048700420DE
:1049300088701220C8700020087120784871607853
:1049400088710B4B5A1E05210848801C01F081FB21
:104950000748401E00780549C8710548401E407848
:1049600008720921014801F021FB10BDC014002488
:104970009800002410B504465920104908705320AF
:104980004870032088700A20C87020780871607809
:1049900048710B4B5A1E04210848801C01F059FB3A
:1049A0000748401E0078054988710548401E407838
:1049B000C8710821014801F0F9FA10BDC0140024A3
:1049C0009800002410B5044659201049087053205F
:1049D0004870052088700A20C870207808716078B7
:1049E00048710B4B5A1E04210848801C01F031FB12
:1049F0000748401E0078054988710548401E4078E8
:104A0000C8710821014801F0D1FA10BDC01400247A
:104A100098000024704770472DE9F04104460E4687
:104A200000274848006800F00300032802D1012055
:104A3000BDE8F08143482838006820F08060414993
:104A400028390860FDF7E2FD054606E0FDF7DEFDCA
:104A5000401B022801D90320EAE73A4828380068B9
:104A6000C0F3C0600028F1D100BF3648006820F4D0
:104A70007C30216840EA013032490860A088401E3D
:104A8000C0F30800A168491E4FF47E4202EA4121AA
:104A90000843A189491ED20102EA01410843217C51
:104AA000491E120202EA01610843264910310860DA
:104AB00000BF2448001D006820F0C0006169084361
:104AC0002049091D08600846006820F02000A169FF
:104AD00008431C49091D08602EB90846006840F4C7
:104AE0000020086012E0012E08D11648001D006861
:104AF00040F480101349091D086007E01148001DAB
:104B0000006840F400100F49091D08600D4828385E
:104B1000006840F080600B4928390860FDF776FD99
:104B2000054606E0FDF772FD401B022801D903206F
:104B30007EE7044828380068C0F3C0600028F1D040
:104B4000384675E7284402582DE9F04104460E46E0
:104B500000274848006800F00300032802D1012024
:104B6000BDE8F08143482838006820F08050414972
:104B700028390860FDF74AFD054606E0FDF746FDC9
:104B8000401B022801D90320EAE73A482838006888
:104B9000C0F340700028F1D100BF3648006820F013
:104BA0007C70218840EA015032490860A088401E8C
:104BB000C0F30800A168491E4FF47E4202EA412179
:104BC0000843A189491ED20102EA01410843217C20
:104BD000491E120202EA01610843264918310860A1
:104BE00000BF2448001D006820F44060616908434C
:104BF0002049091D08600846006820F40070A1697A
:104C000008431C49091D08602EB90846006840F495
:104C10008000086012E0012E08D11648001D0068CF
:104C200040F400001349091D086007E01148001D09
:104C3000006840F080700F49091D08600D48283851
:104C4000006840F080500B4928390860FDF7DEFC11
:104C5000054606E0FDF7DAFC401B022801D90320D7
:104C60007EE7044828380068C0F340700028F1D07F
:104C7000384675E72844025810B500231B4C2360C2
:104C800000BF00BF00BFBFF34F8F00BF00BF00BF1A
:104C9000231F1868C0F34E3100BFC0F3C90200BF24
:104CA00043F6E07303EA41134FF0404404EA827490
:104CB00023430F4C236000BF00BF131EA2F101026B
:104CC000EED10B1EA1F10101E7D100BF00BF00BF73
:104CD000BFF34F8F00BF00BF00BF00BF00BF00BFCA
:104CE000BFF36F8F00BF00BF00BF10BD84ED00E0B9
:104CF0006CEF00E010B500231B4C236000BF00BF29
:104D000000BFBFF34F8F00BF00BF00BF231F186855
:104D1000C0F34E3100BFC0F3C90200BF43F6E073D9
:104D200003EA41134FF0404404EA827423430F4CDA
:104D3000236000BF00BF131EA2F10102EED10B1EC3
:104D4000A1F10101E7D100BF00BF00BFBFF34F8F4A
:104D500000BF00BF00BF00BF00BF00BFBFF36F8F29
:104D600000BF00BF00BF10BD84ED00E06CEF00E0AD
:104D700010B50023234C236000BF00BF00BFBFF36A
:104D80004F8F00BF00BF00BF231F1868C0F34E3114
:104D900000BFC0F3C90200BF43F6E07303EA41134A
:104DA0004FF0404404EA82742343174C236000BF51
:104DB00000BF131EA2F10102EED10B1EA1F10101F1
:104DC000E7D100BF00BF00BFBFF34F8F00BF00BFE0
:104DD00000BF0C4B703B1B6843F48033094C703CA4
:104DE000236000BF00BF00BFBFF34F8F00BF00BFF5
:104DF00000BF00BF00BF00BFBFF36F8F00BF00BF89
:104E000000BF10BD84ED00E060EF00E000BF00BF18
:104E100000BFBFF34F8F00BF00BF00BF00BF00BF88
:104E200000BFBFF36F8F00BF00BF00BF0020144959
:104E3000086000BF00BF00BFBFF34F8F00BF00BFBF
:104E400000BF00BF00BF00BFBFF36F8F00BF00BF38
:104E500000BF0C48006840F400300A49086000BFF9
:104E600000BF00BFBFF34F8F00BF00BF00BF00BF38
:104E700000BF00BFBFF36F8F00BF00BF00BF704710
:104E800050EF00E014ED00E010B500231B4C236050
:104E900000BF00BF00BFBFF34F8F00BF00BF00BF08
:104EA000231F1868C0F34E3100BFC0F3C90200BF12
:104EB00043F6E07303EA41134FF0404404EA82747E
:104EC00023430F4C236000BF00BF131EA2F1010259
:104ED000EED10B1EA1F10101E7D100BF00BF00BF61
:104EE000BFF34F8F00BF00BF00BF00BF00BF00BFB8
:104EF000BFF36F8F00BF00BF00BF10BD84ED00E0A7
:104F000060EF00E0704700002DE9F0419CB0804662
:104F10000C4615461E4600273748006820F004005E
:104F20003549086000BF0020009033480C3000680D
:104F300040F4404030490C3108600846006800F4F5
:104F40004040009000BF00BF00BF2B480C300068FD
:104F500000F40050B0F5005FF7D10120019000048B
:104F6000029000200490089002200A9002210B91E8
:104F7000CDF834800C940E950F96002112910821E3
:104F8000119101A8FEF776FE07460FB100BFFEE7BC
:104F90003F201490032015900020169008201790B1
:104FA0004020199000011A904020189050201B902A
:104FB000022114A8FEF7CCFB07460FB100BFFEE7A5
:104FC0000E48006840F080000C49086000BF0B48A4
:104FD000F430006840F002000849F43108600846E7
:104FE000006800F00200009000BF00BFFDF7D8F994
:104FF0001CB0BDE8F08100000C4802580044025883
:1050000010B5FDF709FB10BD2048006840F47000A2
:105010001E4908601E48006840F001001C490860F5
:1050200000201B49103108601948006819490840E0
:10503000174908600020164918310860091D0860EA
:10504000091D0860124928310860091D0860091D02
:105050000860091D0860091D0860091D0860091D18
:105060000860091D08600A48006820F4802008498B
:105070000860002006496031086001200649086088
:10508000C0060249803908607047000088ED00E0E2
:10509000004402587FEDF6EA0881005190F8341080
:1050A00001F0010139B10168496821F40031826BD6
:1050B00011430268516090F8341001F0020139B1D7
:1050C0000168496821F48031C26B11430268516064
:1050D00090F8341001F0040139B10168496821F4F5
:1050E0008021026C11430268516090F8341001F085
:1050F000080139B10168496821F40041426C11434B
:105100000268516090F8341001F0100139B1016863
:10511000896821F48051826C11430268916090F893
:10512000341001F0200139B10168896821F400517F
:10513000C26C11430268916090F8341001F0400194
:1051400099B10168496821F48011026D1143026828
:105150005160016DB1F5801F07D10168496821F4E4
:10516000C001426D11430268516090F8341001F0A3
:10517000800139B10168496821F40021826D114331
:1051800002685160704738B5044600250020E0678A
:10519000FDF73CFA05462068006800F00800082882
:1051A0000CD16FF07E402B4600224FF4001100908E
:1051B000204600F02AFE08B1032038BD20680068B0
:1051C00000F0040004280CD16FF07E402B46002232
:1051D0004FF480010090204600F017FE08B1032034
:1051E000EBE7202084F8790084F87A0000BF0020E3
:1051F00084F8780000BF00BFDFE770B50546AC6BF0
:105200000020A4F86A00A4F862002046FFF7F5F831
:1052100070BD70B50546AC6B2846FCF7E7FC02286C
:1052200024D094F8790021280AD12068806800F001
:10523000800028B10020A4F86200204600F083F826
:1052400094F87A0022280AD12068806800F0400093
:1052500028B10020A4F86A00204600F054F8E06F5E
:1052600040F01000E0672046FFF7C7F870BD70B54A
:105270000546AC6BE869B0F5807F17D00020A4F834
:105280006A002068006820F4807021680860206847
:10529000806820F00100216888602068806820F024
:1052A000400021688860202084F87A002046FFF7BB
:1052B00019FA70BD70B50446A56B2846FFF713FABE
:1052C00070BD70B50546AC6BE869B0F5807F0FD056
:1052D0000020A4F862002068806820F08000216827
:1052E00088602068006840F040002168086002E0A3
:1052F0002046FFF7ABFA70BD70B50446A56B284693
:10530000FFF7A5FA70BD0168096821F49071026881
:1053100011600168896821F0010102689160202113
:1053200080F87A10704710B504462068006820F0B5
:10533000400021680860202084F879002046FFF7AB
:1053400085FA002010BD0168096821F0C0010268DB
:105350001160202180F8791070472DE9F041044652
:10536000B4F86C7094F87A00222833D12068858CC8
:10537000A068B0F5805F09D1206938B9666E05EA8A
:1053800007003080606E801C606605E0F8B228403F
:10539000626E511C61661070B4F86A00401E80B2E3
:1053A000A4F86A00A0B92068006820F49070216811
:1053B00008602068806820F0010021688860202053
:1053C00084F87A002046FFF78DF90020BDE8F081CF
:1053D0000020FBE72068008B40F00800216808836C
:1053E0000220F3E72DE9F04F89B0044600254FF085
:1053F0008008A946AA4600200890FA4920688842F9
:1054000001D1012000E0002000B100E000BFA06A4F
:10541000B0F1005F00D100BF2169A0680843616955
:105420000843E16940EA0105A06A05432068006875
:10543000ED4908402843216808602068406820F44E
:105440004050E168084321684860A569E549206843
:10545000884201D1012000E0002008B9206A0543FC
:10546000A06AB0F1005F03D1D4E90B010843054302
:1054700020688068DD4908402843216888602068EA
:10548000C06A20F00F00616A08432168C86200BF4B
:10549000D7492068884224D1D648006800F03800F7
:1054A000182814D005DC48B108280AD0102817D1D4
:1054B0000AE020280ED0282812D10EE04FF0010873
:1054C0000EE04FF004080BE04FF0400808E04FF00A
:1054D000080805E04FF0100802E04FF0200800BF78
:1054E00017E1C549206888421DD1C248006800F014
:1054F0000700062816D2DFE800F00306090C0F1299
:105500004FF000080EE04FF004080BE04FF04008A9
:1055100008E04FF0080805E04FF0100802E04FF0F7
:10552000200800BFF5E0B549206888421DD1B14888
:10553000006800F00700062816D2DFE800F0030636
:10554000090C0F124FF000080EE04FF004080BE0BA
:105550004FF0400808E04FF0080805E04FF0100851
:1055600002E04FF0200800BFD3E0A5492068884240
:105570001DD1A048006800F00700062816D2DFE819
:1055800000F00306090C0F124FF000080EE04FF078
:1055900004080BE04FF0400808E04FF0080805E071
:1055A0004FF0100802E04FF0200800BFB1E095492D
:1055B000206888421DD18F48006800F00700062847
:1055C00016D2DFE800F00306090C0F124FF00008B6
:1055D0000EE04FF004080BE04FF0400808E04FF0F9
:1055E000080805E04FF0100802E04FF0200800BF67
:1055F0008FE085492068884224D17E48006800F009
:105600003800182814D005DC48B108280AD0102822
:1056100017D10AE020280ED0282812D10EE04FF032
:1056200001080EE04FF004080BE04FF0400808E0DE
:105630004FF0080805E04FF0100802E04FF0200896
:1056400000BF66E07149206888421DD16948006842
:1056500000F00700062816D2DFE800F00306090C68
:105660000F124FF000080EE04FF004080BE04FF06F
:10567000400808E04FF0080805E04FF0100802E08D
:105680004FF0200800BF44E06149206888421DD1E6
:105690005848006800F00700062816D2DFE800F03E
:1056A0000306090C0F124FF000080EE04FF004083B
:1056B0000BE04FF0400808E04FF0080805E04FF01D
:1056C000100802E04FF0200800BF22E045492068A2
:1056D00088421ED14748001D006800F007000628D8
:1056E00016D2DFE800F00306090C0F124FF0020893
:1056F0000EE04FF004080BE04FF0400808E04FF0D8
:10570000080805E04FF0100802E04FF0200800BF45
:1057100000BF00BF33492068884201D1012000E06A
:10572000002000285DD00025B8F1100F33D009DC2F
:10573000B8F1020F10D0B8F1040F11D0B8F1080F72
:105740002ED117E0B8F1200F27D0B8F1400F0CD0C0
:10575000B8F1800F24D124E0FDF71CF8054623E0C2
:1057600005A8FDF72DF8069D1EE002A8FDF73EF9FD
:10577000039D19E01F4854380068C0F3401040B141
:105780001C4854380068C0F3C101224820FA01F5D2
:1057900000E0204D08E0204D06E04FF4004503E016
:1057A00000BF0120089000BF00BF002D0AD0606834
:1057B00000EB4000A84203D860680003A84202D270
:1057C00001200890D4E2B8F1100F7CD026DCB8F1AB
:1057D000020F2DD0B8F1040F52D0B8F1080F73D1D9
:1057E0009EE03FE1000C0058F369FFCFFFF4FF118A
:1057F000001001405444025800440040004800405A
:10580000004C00400050004000140140007800406F
:10581000007C00400090D00300093D00B8F1200F4B
:105820007DD0B8F1400F54D0B8F1800FD7D109E145
:10583000FCF7B0FF00270646FB49606A31F810C04C
:1058400062463B4630463946FAF7A2FD4FF4807671
:1058500000220346A3FB060701FB067103FB0213AC
:1058600061684908064671185A41CDE90012666818
:105870003246002308460199FAF78AFD0546E4E01E
:1058800005A8FCF79DFFDDF818C0E749606A31F80C
:1058900010B05A46002360461946FAF779FD4FF4D6
:1058A000807C0022A0FB0C3B01FB0CB100FB021032
:1058B000616849085E1840EB0201D4F804C06246F2
:1058C0000023304601E079E0BBE0FAF761FD0546D0
:1058D000BBE002A8FDF78AF8DDF80CC0D249606A87
:1058E00031F810B05A46002360461946FAF750FDC9
:1058F0004FF4807C0022A0FB0C3B01FB0CB100FBB1
:105900000210616849085E1840EB0201D4F804C037
:10591000624600233046FAF73BFD054695E06EE00F
:10592000C2480068C0F3401038B3C0480068C0F3F4
:10593000C101BF4820FA01FCBB49606A31F810B0D0
:105940005A46002360461946FAF722FD4FF4807C40
:105950000022A0FB0C3B01FB0CB100FB02106168B4
:1059600049085E1840EB0201D4F804C062460023E7
:105970003046FAF70DFD05461FE0AB49606A31F885
:1059800010C062460023AA481946FAF701FD4FF4F9
:10599000807C0022A0FB0C3B01FB0CB100FB021041
:1059A000616849085E1840EB0201D4F804C0624601
:1059B00000233046FAF7ECFC054646E09A49606A57
:1059C00031F810C0624600239A481946FAF7E0FC05
:1059D0004FF4807C0022A0FB0C3B01FB0CB100FBD0
:1059E0000210616849085E1840EB0201D4F804C057
:1059F000624600233046FAF7CBFC054625E08A498B
:105A0000606A31F810C0624600234FF40040194626
:105A1000FAF7BEFC4FF4807C0022A0FB0C3B01FB9C
:105A20000CB100FB0210616849085E1840EB0201EE
:105A3000D4F804C0624600233046FAF7A9FC0546B4
:105A400003E000BF0120089000BF00BFB5F5407F14
:105A500005D3B5F5801F02D22068C56088E101201A
:105A6000089085E1E069B0F5004F7CD1B8F1100FE6
:105A70007AD00CDCB8F1000F13D0B8F1010F21D0AF
:105A8000B8F1040F2FD0B8F1080F6ED151E0B8F182
:105A9000200F6BD0B8F1400F38D0B8F1800F64D12F
:105AA00097E0FDF799FF604A616A32F81110B0FB88
:105AB000F1F04000616800EB5100B0FBF1F01FFA1B
:105AC00080FA89E0FDF79EFF574A616A32F81110AB
:105AD000B0FBF1F04000616800EB5100B0FBF1F069
